{
    "contractName": "Token",
    "abi": [
        {
            "inputs": [],
            "stateMutability": "nonpayable",
            "type": "constructor"
        },
        {
            "inputs": [
                {
                    "internalType": "uint256",
                    "name": "requested",
                    "type": "uint256"
                },
                {
                    "internalType": "uint256",
                    "name": "available",
                    "type": "uint256"
                }
            ],
            "name": "LowBalance",
            "type": "error"
        },
        {
            "anonymous": false,
            "inputs": [
                {
                    "indexed": false,
                    "internalType": "address",
                    "name": "from",
                    "type": "address"
                },
                {
                    "indexed": false,
                    "internalType": "address",
                    "name": "to",
                    "type": "address"
                },
                {
                    "indexed": false,
                    "internalType": "uint256",
                    "name": "amount",
                    "type": "uint256"
                }
            ],
            "name": "sent",
            "type": "event"
        },
        {
            "inputs": [
                {
                    "internalType": "address",
                    "name": "",
                    "type": "address"
                }
            ],
            "name": "balances",
            "outputs": [
                {
                    "internalType": "uint256",
                    "name": "",
                    "type": "uint256"
                }
            ],
            "stateMutability": "view",
            "type": "function"
        },
        {
            "inputs": [
                {
                    "internalType": "address",
                    "name": "receiver",
                    "type": "address"
                },
                {
                    "internalType": "uint256",
                    "name": "amount",
                    "type": "uint256"
                }
            ],
            "name": "create",
            "outputs": [],
            "stateMutability": "nonpayable",
            "type": "function"
        },
        {
            "inputs": [],
            "name": "creator",
            "outputs": [
                {
                    "internalType": "address",
                    "name": "",
                    "type": "address"
                }
            ],
            "stateMutability": "view",
            "type": "function"
        },
        {
            "inputs": [
                {
                    "internalType": "address",
                    "name": "receiver",
                    "type": "address"
                },
                {
                    "internalType": "uint256",
                    "name": "amount",
                    "type": "uint256"
                }
            ],
            "name": "send",
            "outputs": [],
            "stateMutability": "nonpayable",
            "type": "function"
        }
    ],
    "bytecode": "608060405234801561001057600080fd5b50600080546001600160a01b031916331790556102bf806100326000396000f3fe608060405234801561001057600080fd5b506004361061004c5760003560e01c806302d05d3f146100515780630ecaea731461008157806327e235e314610096578063d0679d34146100c4575b600080fd5b600054610064906001600160a01b031681565b6040516001600160a01b0390911681526020015b60405180910390f35b61009461008f3660046101f8565b6100d7565b005b6100b66100a4366004610222565b60016020526000908152604090205481565b604051908152602001610078565b6100946100d23660046101f8565b610132565b6000546001600160a01b031633146100ee57600080fd5b6001600160a01b03821660009081526001602052604090205461011290829061025a565b6001600160a01b0390921660009081526001602052604090209190915550565b3360009081526001602052604090205481111561018757336000908152600160205260409081902054905163d043851160e01b815261017e918391600401918252602082015260400190565b60405180910390fd5b33600090815260016020526040812080548392906101a6908490610272565b90915550506001600160a01b038216600090815260016020526040812080548392906101d390849061025a565b90915550505050565b80356001600160a01b03811681146101f357600080fd5b919050565b6000806040838503121561020b57600080fd5b610214836101dc565b946020939093013593505050565b60006020828403121561023457600080fd5b61023d826101dc565b9392505050565b634e487b7160e01b600052601160045260246000fd5b6000821982111561026d5761026d610244565b500190565b60008282101561028457610284610244565b50039056fea2646970667358221220be4ad2fd6eda38195cfc4046564f49ef9588fc88207155b955d6cd5c0eb27b5364736f6c634300080a0033",
    "sourcePath": "/home/the0xjerry/Solidity Projects/ERC20 Token/Kcoin.sol",
    "compiler": {
        "name": "solc",
        "version": "0.8.10+commit.fc410830"
    },
    "functionHashes": {
        "balances(address)": "27e235e3",
        "create(address,uint256)": "0ecaea73",
        "creator()": "02d05d3f",
        "send(address,uint256)": "d0679d34"
    },
    "gasEstimates": {
        "creation": {
            "codeDepositCost": "140600",
            "executionCost": "24418",
            "totalCost": "165018"
        },
        "external": {
            "balances(address)": "2541",
            "create(address,uint256)": "26930",
            "creator()": "2304",
            "send(address,uint256)": "51313"
        }
    }
}